{
  "_format": "hh-sol-artifact-1",
  "contractName": "WeRaceDAONFT",
  "sourceName": "contracts/WeRaceDAONFT.sol",
  "abi": [
    {
      "inputs": [],
      "stateMutability": "nonpayable",
      "type": "constructor"
    },
    {
      "anonymous": false,
      "inputs": [
        {
          "indexed": true,
          "internalType": "address",
          "name": "account",
          "type": "address"
        },
        {
          "indexed": true,
          "internalType": "address",
          "name": "operator",
          "type": "address"
        },
        {
          "indexed": false,
          "internalType": "bool",
          "name": "approved",
          "type": "bool"
        }
      ],
      "name": "ApprovalForAll",
      "type": "event"
    },
    {
      "anonymous": false,
      "inputs": [
        {
          "indexed": true,
          "internalType": "address",
          "name": "previousOwner",
          "type": "address"
        },
        {
          "indexed": true,
          "internalType": "address",
          "name": "newOwner",
          "type": "address"
        }
      ],
      "name": "OwnershipTransferred",
      "type": "event"
    },
    {
      "anonymous": false,
      "inputs": [
        {
          "indexed": true,
          "internalType": "address",
          "name": "operator",
          "type": "address"
        },
        {
          "indexed": true,
          "internalType": "address",
          "name": "from",
          "type": "address"
        },
        {
          "indexed": true,
          "internalType": "address",
          "name": "to",
          "type": "address"
        },
        {
          "indexed": false,
          "internalType": "uint256[]",
          "name": "ids",
          "type": "uint256[]"
        },
        {
          "indexed": false,
          "internalType": "uint256[]",
          "name": "values",
          "type": "uint256[]"
        }
      ],
      "name": "TransferBatch",
      "type": "event"
    },
    {
      "anonymous": false,
      "inputs": [
        {
          "indexed": true,
          "internalType": "address",
          "name": "operator",
          "type": "address"
        },
        {
          "indexed": true,
          "internalType": "address",
          "name": "from",
          "type": "address"
        },
        {
          "indexed": true,
          "internalType": "address",
          "name": "to",
          "type": "address"
        },
        {
          "indexed": false,
          "internalType": "uint256",
          "name": "id",
          "type": "uint256"
        },
        {
          "indexed": false,
          "internalType": "uint256",
          "name": "value",
          "type": "uint256"
        }
      ],
      "name": "TransferSingle",
      "type": "event"
    },
    {
      "anonymous": false,
      "inputs": [
        {
          "indexed": false,
          "internalType": "string",
          "name": "value",
          "type": "string"
        },
        {
          "indexed": true,
          "internalType": "uint256",
          "name": "id",
          "type": "uint256"
        }
      ],
      "name": "URI",
      "type": "event"
    },
    {
      "inputs": [
        {
          "internalType": "address",
          "name": "account",
          "type": "address"
        },
        {
          "internalType": "uint256",
          "name": "id",
          "type": "uint256"
        }
      ],
      "name": "balanceOf",
      "outputs": [
        {
          "internalType": "uint256",
          "name": "",
          "type": "uint256"
        }
      ],
      "stateMutability": "view",
      "type": "function"
    },
    {
      "inputs": [
        {
          "internalType": "address[]",
          "name": "accounts",
          "type": "address[]"
        },
        {
          "internalType": "uint256[]",
          "name": "ids",
          "type": "uint256[]"
        }
      ],
      "name": "balanceOfBatch",
      "outputs": [
        {
          "internalType": "uint256[]",
          "name": "",
          "type": "uint256[]"
        }
      ],
      "stateMutability": "view",
      "type": "function"
    },
    {
      "inputs": [
        {
          "internalType": "address",
          "name": "checkAddress",
          "type": "address"
        }
      ],
      "name": "checkMintBalance",
      "outputs": [],
      "stateMutability": "view",
      "type": "function"
    },
    {
      "inputs": [],
      "name": "contractURI",
      "outputs": [
        {
          "internalType": "string",
          "name": "",
          "type": "string"
        }
      ],
      "stateMutability": "view",
      "type": "function"
    },
    {
      "inputs": [],
      "name": "getRemaining",
      "outputs": [
        {
          "internalType": "uint256",
          "name": "",
          "type": "uint256"
        }
      ],
      "stateMutability": "view",
      "type": "function"
    },
    {
      "inputs": [
        {
          "internalType": "address",
          "name": "account",
          "type": "address"
        },
        {
          "internalType": "address",
          "name": "operator",
          "type": "address"
        }
      ],
      "name": "isApprovedForAll",
      "outputs": [
        {
          "internalType": "bool",
          "name": "",
          "type": "bool"
        }
      ],
      "stateMutability": "view",
      "type": "function"
    },
    {
      "inputs": [],
      "name": "mint",
      "outputs": [],
      "stateMutability": "nonpayable",
      "type": "function"
    },
    {
      "inputs": [],
      "name": "name",
      "outputs": [
        {
          "internalType": "string",
          "name": "",
          "type": "string"
        }
      ],
      "stateMutability": "view",
      "type": "function"
    },
    {
      "inputs": [],
      "name": "owner",
      "outputs": [
        {
          "internalType": "address",
          "name": "",
          "type": "address"
        }
      ],
      "stateMutability": "view",
      "type": "function"
    },
    {
      "inputs": [],
      "name": "renounceOwnership",
      "outputs": [],
      "stateMutability": "nonpayable",
      "type": "function"
    },
    {
      "inputs": [
        {
          "internalType": "address",
          "name": "from",
          "type": "address"
        },
        {
          "internalType": "address",
          "name": "to",
          "type": "address"
        },
        {
          "internalType": "uint256[]",
          "name": "ids",
          "type": "uint256[]"
        },
        {
          "internalType": "uint256[]",
          "name": "amounts",
          "type": "uint256[]"
        },
        {
          "internalType": "bytes",
          "name": "data",
          "type": "bytes"
        }
      ],
      "name": "safeBatchTransferFrom",
      "outputs": [],
      "stateMutability": "nonpayable",
      "type": "function"
    },
    {
      "inputs": [
        {
          "internalType": "address",
          "name": "from",
          "type": "address"
        },
        {
          "internalType": "address",
          "name": "to",
          "type": "address"
        },
        {
          "internalType": "uint256",
          "name": "id",
          "type": "uint256"
        },
        {
          "internalType": "uint256",
          "name": "amount",
          "type": "uint256"
        },
        {
          "internalType": "bytes",
          "name": "data",
          "type": "bytes"
        }
      ],
      "name": "safeTransferFrom",
      "outputs": [],
      "stateMutability": "nonpayable",
      "type": "function"
    },
    {
      "inputs": [
        {
          "internalType": "address",
          "name": "operator",
          "type": "address"
        },
        {
          "internalType": "bool",
          "name": "approved",
          "type": "bool"
        }
      ],
      "name": "setApprovalForAll",
      "outputs": [],
      "stateMutability": "nonpayable",
      "type": "function"
    },
    {
      "inputs": [
        {
          "internalType": "string",
          "name": "_name",
          "type": "string"
        }
      ],
      "name": "setName",
      "outputs": [],
      "stateMutability": "nonpayable",
      "type": "function"
    },
    {
      "inputs": [
        {
          "internalType": "string",
          "name": "_newuri",
          "type": "string"
        }
      ],
      "name": "setURI",
      "outputs": [],
      "stateMutability": "nonpayable",
      "type": "function"
    },
    {
      "inputs": [
        {
          "internalType": "bytes4",
          "name": "interfaceId",
          "type": "bytes4"
        }
      ],
      "name": "supportsInterface",
      "outputs": [
        {
          "internalType": "bool",
          "name": "",
          "type": "bool"
        }
      ],
      "stateMutability": "view",
      "type": "function"
    },
    {
      "inputs": [
        {
          "internalType": "address",
          "name": "newOwner",
          "type": "address"
        }
      ],
      "name": "transferOwnership",
      "outputs": [],
      "stateMutability": "nonpayable",
      "type": "function"
    },
    {
      "inputs": [
        {
          "internalType": "uint256",
          "name": "",
          "type": "uint256"
        }
      ],
      "name": "uri",
      "outputs": [
        {
          "internalType": "string",
          "name": "",
          "type": "string"
        }
      ],
      "stateMutability": "view",
      "type": "function"
    }
  ],
  "bytecode": "0x60806040526101a4600360146101000a81548161ffff021916908361ffff1602179055506000600360166101000a81548161ffff021916908361ffff1602179055503480156200004e57600080fd5b5060405180606001604052806035815260200162004237603591396200007a816200014860201b60201c565b506200009b6200008f6200016460201b60201c565b6200016c60201b60201c565b620000bf33600180604051806020016040528060008152506200023260201b60201c565b6003601681819054906101000a900461ffff1680929190620000e19062000d67565b91906101000a81548161ffff021916908361ffff16021790555050620001426040518060400160405280601481526020017f576552616365204e46542044414f20546f6b656e000000000000000000000000815250620003f760201b60201c565b62000ef1565b806002908051906020019062000160929190620007a0565b5050565b600033905090565b6000600360009054906101000a900473ffffffffffffffffffffffffffffffffffffffff16905081600360006101000a81548173ffffffffffffffffffffffffffffffffffffffff021916908373ffffffffffffffffffffffffffffffffffffffff1602179055508173ffffffffffffffffffffffffffffffffffffffff168173ffffffffffffffffffffffffffffffffffffffff167f8be0079c531659141344cd1fd0a4f28419497f9722a3daafe3b4186f6b6457e060405160405180910390a35050565b600073ffffffffffffffffffffffffffffffffffffffff168473ffffffffffffffffffffffffffffffffffffffff161415620002a5576040517f08c379a00000000000000000000000000000000000000000000000000000000081526004016200029c9062000b9f565b60405180910390fd5b6000620002b76200016460201b60201c565b9050620002f081600087620002d288620004a260201b60201c565b620002e388620004a260201b60201c565b876200056b60201b60201c565b8260008086815260200190815260200160002060008773ffffffffffffffffffffffffffffffffffffffff1673ffffffffffffffffffffffffffffffffffffffff168152602001908152602001600020600082825462000351919062000c26565b925050819055508473ffffffffffffffffffffffffffffffffffffffff16600073ffffffffffffffffffffffffffffffffffffffff168273ffffffffffffffffffffffffffffffffffffffff167fc3d58168c5ae7397731d063d5bbf3d657854427343f4c083240f7aacaa2d0f628787604051620003d192919062000bc1565b60405180910390a4620003f0816000878787876200057360201b60201c565b5050505050565b620004076200016460201b60201c565b73ffffffffffffffffffffffffffffffffffffffff166200042d6200076360201b60201c565b73ffffffffffffffffffffffffffffffffffffffff161462000486576040517f08c379a00000000000000000000000000000000000000000000000000000000081526004016200047d9062000b7d565b60405180910390fd5b80600590805190602001906200049e929190620007a0565b5050565b60606000600167ffffffffffffffff811115620004e8577f4e487b7100000000000000000000000000000000000000000000000000000000600052604160045260246000fd5b604051908082528060200260200182016040528015620005175781602001602082028036833780820191505090505b509050828160008151811062000556577f4e487b7100000000000000000000000000000000000000000000000000000000600052603260045260246000fd5b60200260200101818152505080915050919050565b505050505050565b6200059f8473ffffffffffffffffffffffffffffffffffffffff166200078d60201b62000e441760201c565b156200075b578373ffffffffffffffffffffffffffffffffffffffff1663f23a6e6187878686866040518663ffffffff1660e01b8152600401620005e895949392919062000ab1565b602060405180830381600087803b1580156200060357600080fd5b505af19250505080156200063757506040513d601f19601f8201168201806040525081019062000634919062000867565b60015b620006cf576200064662000e13565b8062000653575062000692565b806040517f08c379a000000000000000000000000000000000000000000000000000000000815260040162000689919062000b15565b60405180910390fd5b6040517f08c379a0000000000000000000000000000000000000000000000000000000008152600401620006c69062000b39565b60405180910390fd5b63f23a6e6160e01b7bffffffffffffffffffffffffffffffffffffffffffffffffffffffff1916817bffffffffffffffffffffffffffffffffffffffffffffffffffffffff19161462000759576040517f08c379a0000000000000000000000000000000000000000000000000000000008152600401620007509062000b5b565b60405180910390fd5b505b505050505050565b6000600360009054906101000a900473ffffffffffffffffffffffffffffffffffffffff16905090565b600080823b905060008111915050919050565b828054620007ae9062000d31565b90600052602060002090601f016020900481019282620007d257600085556200081e565b82601f10620007ed57805160ff19168380011785556200081e565b828001600101855582156200081e579182015b828111156200081d57825182559160200191906001019062000800565b5b5090506200082d919062000831565b5090565b5b808211156200084c57600081600090555060010162000832565b5090565b600081519050620008618162000ed7565b92915050565b6000602082840312156200087a57600080fd5b60006200088a8482850162000850565b91505092915050565b6200089e8162000c83565b82525050565b6000620008b18262000bee565b620008bd818562000c04565b9350620008cf81856020860162000cfb565b620008da8162000df5565b840191505092915050565b6000620008f28262000bf9565b620008fe818562000c15565b93506200091081856020860162000cfb565b6200091b8162000df5565b840191505092915050565b60006200093560348362000c15565b91507f455243313135353a207472616e7366657220746f206e6f6e204552433131353560008301527f526563656976657220696d706c656d656e7465720000000000000000000000006020830152604082019050919050565b60006200099d60288362000c15565b91507f455243313135353a204552433131353552656365697665722072656a6563746560008301527f6420746f6b656e730000000000000000000000000000000000000000000000006020830152604082019050919050565b600062000a0560208362000c15565b91507f4f776e61626c653a2063616c6c6572206973206e6f7420746865206f776e65726000830152602082019050919050565b600062000a4760218362000c15565b91507f455243313135353a206d696e7420746f20746865207a65726f2061646472657360008301527f73000000000000000000000000000000000000000000000000000000000000006020830152604082019050919050565b62000aab8162000cf1565b82525050565b600060a08201905062000ac8600083018862000893565b62000ad7602083018762000893565b62000ae6604083018662000aa0565b62000af5606083018562000aa0565b818103608083015262000b098184620008a4565b90509695505050505050565b6000602082019050818103600083015262000b318184620008e5565b905092915050565b6000602082019050818103600083015262000b548162000926565b9050919050565b6000602082019050818103600083015262000b76816200098e565b9050919050565b6000602082019050818103600083015262000b9881620009f6565b9050919050565b6000602082019050818103600083015262000bba8162000a38565b9050919050565b600060408201905062000bd8600083018562000aa0565b62000be7602083018462000aa0565b9392505050565b600081519050919050565b600081519050919050565b600082825260208201905092915050565b600082825260208201905092915050565b600062000c338262000cf1565b915062000c408362000cf1565b9250827fffffffffffffffffffffffffffffffffffffffffffffffffffffffffffffffff0382111562000c785762000c7762000d97565b5b828201905092915050565b600062000c908262000cd1565b9050919050565b60007fffffffff0000000000000000000000000000000000000000000000000000000082169050919050565b600061ffff82169050919050565b600073ffffffffffffffffffffffffffffffffffffffff82169050919050565b6000819050919050565b60005b8381101562000d1b57808201518184015260208101905062000cfe565b8381111562000d2b576000848401525b50505050565b6000600282049050600182168062000d4a57607f821691505b6020821081141562000d615762000d6062000dc6565b5b50919050565b600062000d748262000cc3565b915061ffff82141562000d8c5762000d8b62000d97565b5b600182019050919050565b7f4e487b7100000000000000000000000000000000000000000000000000000000600052601160045260246000fd5b7f4e487b7100000000000000000000000000000000000000000000000000000000600052602260045260246000fd5b6000601f19601f8301169050919050565b60008160e01c9050919050565b600060443d101562000e255762000ed4565b60046000803e62000e3860005162000e06565b6308c379a0811462000e4b575062000ed4565b60405160043d036004823e80513d602482011167ffffffffffffffff8211171562000e795750505062000ed4565b808201805167ffffffffffffffff81111562000e9a57505050505062000ed4565b8060208301013d850181111562000eb75750505050505062000ed4565b62000ec28262000df5565b60208401016040528296505050505050505b90565b62000ee28162000c97565b811462000eee57600080fd5b50565b6133368062000f016000396000f3fe608060405234801561001057600080fd5b50600436106101155760003560e01c8063715018a6116100a2578063d6a022b811610071578063d6a022b8146102b6578063e8a3d485146102d4578063e985e9c5146102f2578063f242432a14610322578063f2fde38b1461033e57610115565b8063715018a6146102565780638da5cb5b14610260578063a22cb4651461027e578063c47f00271461029a57610115565b80630e89341c116100e95780630e89341c146101b45780631249c58b146101e45780632eb2c2d6146101ee5780634e1273f41461020a578063706302a41461023a57610115565b8062fdd58e1461011a57806301ffc9a71461014a57806302fe53051461017a57806306fdde0314610196575b600080fd5b610134600480360381019061012f91906121f3565b61035a565b6040516101419190612d7c565b60405180910390f35b610164600480360381019061015f919061229b565b610423565b6040516101719190612b5f565b60405180910390f35b610194600480360381019061018f91906122ed565b610505565b005b61019e61058d565b6040516101ab9190612b7a565b60405180910390f35b6101ce60048036038101906101c9919061232e565b61061b565b6040516101db9190612b7a565b60405180910390f35b6101ec6106af565b005b61020860048036038101906102039190612069565b6107c0565b005b610224600480360381019061021f919061222f565b610861565b6040516102319190612b06565b60405180910390f35b610254600480360381019061024f9190612004565b610a12565b005b61025e610a62565b005b610268610aea565b6040516102759190612a29565b60405180910390f35b610298600480360381019061029391906121b7565b610b14565b005b6102b460048036038101906102af91906122ed565b610b2a565b005b6102be610bc0565b6040516102cb9190612d7c565b60405180910390f35b6102dc610bf7565b6040516102e99190612b7a565b60405180910390f35b61030c6004803603810190610307919061202d565b610c17565b6040516103199190612b5f565b60405180910390f35b61033c60048036038101906103379190612128565b610cab565b005b61035860048036038101906103539190612004565b610d4c565b005b60008073ffffffffffffffffffffffffffffffffffffffff168373ffffffffffffffffffffffffffffffffffffffff1614156103cb576040517f08c379a00000000000000000000000000000000000000000000000000000000081526004016103c290612bfc565b60405180910390fd5b60008083815260200190815260200160002060008473ffffffffffffffffffffffffffffffffffffffff1673ffffffffffffffffffffffffffffffffffffffff16815260200190815260200160002054905092915050565b60007fd9b67a26000000000000000000000000000000000000000000000000000000007bffffffffffffffffffffffffffffffffffffffffffffffffffffffff1916827bffffffffffffffffffffffffffffffffffffffffffffffffffffffff191614806104ee57507f0e89341c000000000000000000000000000000000000000000000000000000007bffffffffffffffffffffffffffffffffffffffffffffffffffffffff1916827bffffffffffffffffffffffffffffffffffffffffffffffffffffffff1916145b806104fe57506104fd82610e57565b5b9050919050565b61050d610ec1565b73ffffffffffffffffffffffffffffffffffffffff1661052b610aea565b73ffffffffffffffffffffffffffffffffffffffff1614610581576040517f08c379a000000000000000000000000000000000000000000000000000000000815260040161057890612cbc565b60405180910390fd5b61058a81610ec9565b50565b6005805461059a90613068565b80601f01602080910402602001604051908101604052809291908181526020018280546105c690613068565b80156106135780601f106105e857610100808354040283529160200191610613565b820191906000526020600020905b8154815290600101906020018083116105f657829003601f168201915b505050505081565b60606002805461062a90613068565b80601f016020809104026020016040519081016040528092919081815260200182805461065690613068565b80156106a35780601f10610678576101008083540402835291602001916106a3565b820191906000526020600020905b81548152906001019060200180831161068657829003601f168201915b50505050509050919050565b60006106bc33600161035a565b146106fc576040517f08c379a00000000000000000000000000000000000000000000000000000000081526004016106f390612cdc565b60405180910390fd5b600360149054906101000a900461ffff1661ffff16600360169054906101000a900461ffff1661ffff161115610767576040517f08c379a000000000000000000000000000000000000000000000000000000000815260040161075e90612bdc565b60405180910390fd5b6107833360018060405180602001604052806000815250610ee3565b6003601681819054906101000a900461ffff16809291906107a39061309a565b91906101000a81548161ffff021916908361ffff16021790555050565b6107c8610ec1565b73ffffffffffffffffffffffffffffffffffffffff168573ffffffffffffffffffffffffffffffffffffffff16148061080e575061080d85610808610ec1565b610c17565b5b61084d576040517f08c379a000000000000000000000000000000000000000000000000000000000815260040161084490612c7c565b60405180910390fd5b61085a8585858585611079565b5050505050565b606081518351146108a7576040517f08c379a000000000000000000000000000000000000000000000000000000000815260040161089e90612d1c565b60405180910390fd5b6000835167ffffffffffffffff8111156108ea577f4e487b7100000000000000000000000000000000000000000000000000000000600052604160045260246000fd5b6040519080825280602002602001820160405280156109185781602001602082028036833780820191505090505b50905060005b8451811015610a07576109b1858281518110610963577f4e487b7100000000000000000000000000000000000000000000000000000000600052603260045260246000fd5b60200260200101518583815181106109a4577f4e487b7100000000000000000000000000000000000000000000000000000000600052603260045260246000fd5b602002602001015161035a565b8282815181106109ea577f4e487b7100000000000000000000000000000000000000000000000000000000600052603260045260246000fd5b60200260200101818152505080610a00906130c5565b905061091e565b508091505092915050565b6000610a1f82600161035a565b14610a5f576040517f08c379a0000000000000000000000000000000000000000000000000000000008152600401610a5690612cdc565b60405180910390fd5b50565b610a6a610ec1565b73ffffffffffffffffffffffffffffffffffffffff16610a88610aea565b73ffffffffffffffffffffffffffffffffffffffff1614610ade576040517f08c379a0000000000000000000000000000000000000000000000000000000008152600401610ad590612cbc565b60405180910390fd5b610ae860006113d9565b565b6000600360009054906101000a900473ffffffffffffffffffffffffffffffffffffffff16905090565b610b26610b1f610ec1565b838361149f565b5050565b610b32610ec1565b73ffffffffffffffffffffffffffffffffffffffff16610b50610aea565b73ffffffffffffffffffffffffffffffffffffffff1614610ba6576040517f08c379a0000000000000000000000000000000000000000000000000000000008152600401610b9d90612cbc565b60405180910390fd5b8060059080519060200190610bbc929190611cfc565b5050565b6000600360169054906101000a900461ffff16600360149054906101000a900461ffff16610bee9190612f70565b61ffff16905090565b60606040518060600160405280603581526020016132cc60359139905090565b6000600160008473ffffffffffffffffffffffffffffffffffffffff1673ffffffffffffffffffffffffffffffffffffffff16815260200190815260200160002060008373ffffffffffffffffffffffffffffffffffffffff1673ffffffffffffffffffffffffffffffffffffffff16815260200190815260200160002060009054906101000a900460ff16905092915050565b610cb3610ec1565b73ffffffffffffffffffffffffffffffffffffffff168573ffffffffffffffffffffffffffffffffffffffff161480610cf95750610cf885610cf3610ec1565b610c17565b5b610d38576040517f08c379a0000000000000000000000000000000000000000000000000000000008152600401610d2f90612c3c565b60405180910390fd5b610d45858585858561160c565b5050505050565b610d54610ec1565b73ffffffffffffffffffffffffffffffffffffffff16610d72610aea565b73ffffffffffffffffffffffffffffffffffffffff1614610dc8576040517f08c379a0000000000000000000000000000000000000000000000000000000008152600401610dbf90612cbc565b60405180910390fd5b600073ffffffffffffffffffffffffffffffffffffffff168173ffffffffffffffffffffffffffffffffffffffff161415610e38576040517f08c379a0000000000000000000000000000000000000000000000000000000008152600401610e2f90612c1c565b60405180910390fd5b610e41816113d9565b50565b600080823b905060008111915050919050565b60007f01ffc9a7000000000000000000000000000000000000000000000000000000007bffffffffffffffffffffffffffffffffffffffffffffffffffffffff1916827bffffffffffffffffffffffffffffffffffffffffffffffffffffffff1916149050919050565b600033905090565b8060029080519060200190610edf929190611cfc565b5050565b600073ffffffffffffffffffffffffffffffffffffffff168473ffffffffffffffffffffffffffffffffffffffff161415610f53576040517f08c379a0000000000000000000000000000000000000000000000000000000008152600401610f4a90612d5c565b60405180910390fd5b6000610f5d610ec1565b9050610f7e81600087610f6f8861188e565b610f788861188e565b87611954565b8260008086815260200190815260200160002060008773ffffffffffffffffffffffffffffffffffffffff1673ffffffffffffffffffffffffffffffffffffffff1681526020019081526020016000206000828254610fdd9190612f1a565b925050819055508473ffffffffffffffffffffffffffffffffffffffff16600073ffffffffffffffffffffffffffffffffffffffff168273ffffffffffffffffffffffffffffffffffffffff167fc3d58168c5ae7397731d063d5bbf3d657854427343f4c083240f7aacaa2d0f62878760405161105b929190612d97565b60405180910390a46110728160008787878761195c565b5050505050565b81518351146110bd576040517f08c379a00000000000000000000000000000000000000000000000000000000081526004016110b490612d3c565b60405180910390fd5b600073ffffffffffffffffffffffffffffffffffffffff168473ffffffffffffffffffffffffffffffffffffffff16141561112d576040517f08c379a000000000000000000000000000000000000000000000000000000000815260040161112490612c5c565b60405180910390fd5b6000611137610ec1565b9050611147818787878787611954565b60005b845181101561134457600085828151811061118e577f4e487b7100000000000000000000000000000000000000000000000000000000600052603260045260246000fd5b6020026020010151905060008583815181106111d3577f4e487b7100000000000000000000000000000000000000000000000000000000600052603260045260246000fd5b60200260200101519050600080600084815260200190815260200160002060008b73ffffffffffffffffffffffffffffffffffffffff1673ffffffffffffffffffffffffffffffffffffffff16815260200190815260200160002054905081811015611274576040517f08c379a000000000000000000000000000000000000000000000000000000000815260040161126b90612c9c565b60405180910390fd5b81810360008085815260200190815260200160002060008c73ffffffffffffffffffffffffffffffffffffffff1673ffffffffffffffffffffffffffffffffffffffff168152602001908152602001600020819055508160008085815260200190815260200160002060008b73ffffffffffffffffffffffffffffffffffffffff1673ffffffffffffffffffffffffffffffffffffffff16815260200190815260200160002060008282546113299190612f1a565b925050819055505050508061133d906130c5565b905061114a565b508473ffffffffffffffffffffffffffffffffffffffff168673ffffffffffffffffffffffffffffffffffffffff168273ffffffffffffffffffffffffffffffffffffffff167f4a39dc06d4c0dbc64b70af90fd698a233a518aa5d07e595d983b8c0526c8f7fb87876040516113bb929190612b28565b60405180910390a46113d1818787878787611b2c565b505050505050565b6000600360009054906101000a900473ffffffffffffffffffffffffffffffffffffffff16905081600360006101000a81548173ffffffffffffffffffffffffffffffffffffffff021916908373ffffffffffffffffffffffffffffffffffffffff1602179055508173ffffffffffffffffffffffffffffffffffffffff168173ffffffffffffffffffffffffffffffffffffffff167f8be0079c531659141344cd1fd0a4f28419497f9722a3daafe3b4186f6b6457e060405160405180910390a35050565b8173ffffffffffffffffffffffffffffffffffffffff168373ffffffffffffffffffffffffffffffffffffffff16141561150e576040517f08c379a000000000000000000000000000000000000000000000000000000000815260040161150590612cfc565b60405180910390fd5b80600160008573ffffffffffffffffffffffffffffffffffffffff1673ffffffffffffffffffffffffffffffffffffffff16815260200190815260200160002060008473ffffffffffffffffffffffffffffffffffffffff1673ffffffffffffffffffffffffffffffffffffffff16815260200190815260200160002060006101000a81548160ff0219169083151502179055508173ffffffffffffffffffffffffffffffffffffffff168373ffffffffffffffffffffffffffffffffffffffff167f17307eab39ab6107e8899845ad3d59bd9653f200f220920489ca2b5937696c31836040516115ff9190612b5f565b60405180910390a3505050565b600073ffffffffffffffffffffffffffffffffffffffff168473ffffffffffffffffffffffffffffffffffffffff16141561167c576040517f08c379a000000000000000000000000000000000000000000000000000000000815260040161167390612c5c565b60405180910390fd5b6000611686610ec1565b90506116a68187876116978861188e565b6116a08861188e565b87611954565b600080600086815260200190815260200160002060008873ffffffffffffffffffffffffffffffffffffffff1673ffffffffffffffffffffffffffffffffffffffff1681526020019081526020016000205490508381101561173d576040517f08c379a000000000000000000000000000000000000000000000000000000000815260040161173490612c9c565b60405180910390fd5b83810360008087815260200190815260200160002060008973ffffffffffffffffffffffffffffffffffffffff1673ffffffffffffffffffffffffffffffffffffffff168152602001908152602001600020819055508360008087815260200190815260200160002060008873ffffffffffffffffffffffffffffffffffffffff1673ffffffffffffffffffffffffffffffffffffffff16815260200190815260200160002060008282546117f29190612f1a565b925050819055508573ffffffffffffffffffffffffffffffffffffffff168773ffffffffffffffffffffffffffffffffffffffff168373ffffffffffffffffffffffffffffffffffffffff167fc3d58168c5ae7397731d063d5bbf3d657854427343f4c083240f7aacaa2d0f62888860405161186f929190612d97565b60405180910390a461188582888888888861195c565b50505050505050565b60606000600167ffffffffffffffff8111156118d3577f4e487b7100000000000000000000000000000000000000000000000000000000600052604160045260246000fd5b6040519080825280602002602001820160405280156119015781602001602082028036833780820191505090505b509050828160008151811061193f577f4e487b7100000000000000000000000000000000000000000000000000000000600052603260045260246000fd5b60200260200101818152505080915050919050565b505050505050565b61197b8473ffffffffffffffffffffffffffffffffffffffff16610e44565b15611b24578373ffffffffffffffffffffffffffffffffffffffff1663f23a6e6187878686866040518663ffffffff1660e01b81526004016119c1959493929190612aac565b602060405180830381600087803b1580156119db57600080fd5b505af1925050508015611a0c57506040513d601f19601f82011682018060405250810190611a0991906122c4565b60015b611a9b57611a186131b9565b80611a235750611a60565b806040517f08c379a0000000000000000000000000000000000000000000000000000000008152600401611a579190612b7a565b60405180910390fd5b6040517f08c379a0000000000000000000000000000000000000000000000000000000008152600401611a9290612b9c565b60405180910390fd5b63f23a6e6160e01b7bffffffffffffffffffffffffffffffffffffffffffffffffffffffff1916817bffffffffffffffffffffffffffffffffffffffffffffffffffffffff191614611b22576040517f08c379a0000000000000000000000000000000000000000000000000000000008152600401611b1990612bbc565b60405180910390fd5b505b505050505050565b611b4b8473ffffffffffffffffffffffffffffffffffffffff16610e44565b15611cf4578373ffffffffffffffffffffffffffffffffffffffff1663bc197c8187878686866040518663ffffffff1660e01b8152600401611b91959493929190612a44565b602060405180830381600087803b158015611bab57600080fd5b505af1925050508015611bdc57506040513d601f19601f82011682018060405250810190611bd991906122c4565b60015b611c6b57611be86131b9565b80611bf35750611c30565b806040517f08c379a0000000000000000000000000000000000000000000000000000000008152600401611c279190612b7a565b60405180910390fd5b6040517f08c379a0000000000000000000000000000000000000000000000000000000008152600401611c6290612b9c565b60405180910390fd5b63bc197c8160e01b7bffffffffffffffffffffffffffffffffffffffffffffffffffffffff1916817bffffffffffffffffffffffffffffffffffffffffffffffffffffffff191614611cf2576040517f08c379a0000000000000000000000000000000000000000000000000000000008152600401611ce990612bbc565b60405180910390fd5b505b505050505050565b828054611d0890613068565b90600052602060002090601f016020900481019282611d2a5760008555611d71565b82601f10611d4357805160ff1916838001178555611d71565b82800160010185558215611d71579182015b82811115611d70578251825591602001919060010190611d55565b5b509050611d7e9190611d82565b5090565b5b80821115611d9b576000816000905550600101611d83565b5090565b6000611db2611dad84612df1565b612dc0565b90508083825260208201905082856020860282011115611dd157600080fd5b60005b85811015611e015781611de78882611ef3565b845260208401935060208301925050600181019050611dd4565b5050509392505050565b6000611e1e611e1984612e1d565b612dc0565b90508083825260208201905082856020860282011115611e3d57600080fd5b60005b85811015611e6d5781611e538882611fef565b845260208401935060208301925050600181019050611e40565b5050509392505050565b6000611e8a611e8584612e49565b612dc0565b905082815260208101848484011115611ea257600080fd5b611ead848285613026565b509392505050565b6000611ec8611ec384612e79565b612dc0565b905082815260208101848484011115611ee057600080fd5b611eeb848285613026565b509392505050565b600081359050611f028161326f565b92915050565b600082601f830112611f1957600080fd5b8135611f29848260208601611d9f565b91505092915050565b600082601f830112611f4357600080fd5b8135611f53848260208601611e0b565b91505092915050565b600081359050611f6b81613286565b92915050565b600081359050611f808161329d565b92915050565b600081519050611f958161329d565b92915050565b600082601f830112611fac57600080fd5b8135611fbc848260208601611e77565b91505092915050565b600082601f830112611fd657600080fd5b8135611fe6848260208601611eb5565b91505092915050565b600081359050611ffe816132b4565b92915050565b60006020828403121561201657600080fd5b600061202484828501611ef3565b91505092915050565b6000806040838503121561204057600080fd5b600061204e85828601611ef3565b925050602061205f85828601611ef3565b9150509250929050565b600080600080600060a0868803121561208157600080fd5b600061208f88828901611ef3565b95505060206120a088828901611ef3565b945050604086013567ffffffffffffffff8111156120bd57600080fd5b6120c988828901611f32565b935050606086013567ffffffffffffffff8111156120e657600080fd5b6120f288828901611f32565b925050608086013567ffffffffffffffff81111561210f57600080fd5b61211b88828901611f9b565b9150509295509295909350565b600080600080600060a0868803121561214057600080fd5b600061214e88828901611ef3565b955050602061215f88828901611ef3565b945050604061217088828901611fef565b935050606061218188828901611fef565b925050608086013567ffffffffffffffff81111561219e57600080fd5b6121aa88828901611f9b565b9150509295509295909350565b600080604083850312156121ca57600080fd5b60006121d885828601611ef3565b92505060206121e985828601611f5c565b9150509250929050565b6000806040838503121561220657600080fd5b600061221485828601611ef3565b925050602061222585828601611fef565b9150509250929050565b6000806040838503121561224257600080fd5b600083013567ffffffffffffffff81111561225c57600080fd5b61226885828601611f08565b925050602083013567ffffffffffffffff81111561228557600080fd5b61229185828601611f32565b9150509250929050565b6000602082840312156122ad57600080fd5b60006122bb84828501611f71565b91505092915050565b6000602082840312156122d657600080fd5b60006122e484828501611f86565b91505092915050565b6000602082840312156122ff57600080fd5b600082013567ffffffffffffffff81111561231957600080fd5b61232584828501611fc5565b91505092915050565b60006020828403121561234057600080fd5b600061234e84828501611fef565b91505092915050565b60006123638383612a0b565b60208301905092915050565b61237881612fa4565b82525050565b600061238982612eb9565b6123938185612ee7565b935061239e83612ea9565b8060005b838110156123cf5781516123b68882612357565b97506123c183612eda565b9250506001810190506123a2565b5085935050505092915050565b6123e581612fb6565b82525050565b60006123f682612ec4565b6124008185612ef8565b9350612410818560208601613035565b6124198161319b565b840191505092915050565b600061242f82612ecf565b6124398185612f09565b9350612449818560208601613035565b6124528161319b565b840191505092915050565b600061246a603483612f09565b91507f455243313135353a207472616e7366657220746f206e6f6e204552433131353560008301527f526563656976657220696d706c656d656e7465720000000000000000000000006020830152604082019050919050565b60006124d0602883612f09565b91507f455243313135353a204552433131353552656365697665722072656a6563746560008301527f6420746f6b656e730000000000000000000000000000000000000000000000006020830152604082019050919050565b6000612536601783612f09565b91507f4e4654732061726520616c7265616479206d696e7465640000000000000000006000830152602082019050919050565b6000612576602b83612f09565b91507f455243313135353a2062616c616e636520717565727920666f7220746865207a60008301527f65726f20616464726573730000000000000000000000000000000000000000006020830152604082019050919050565b60006125dc602683612f09565b91507f4f776e61626c653a206e6577206f776e657220697320746865207a65726f206160008301527f64647265737300000000000000000000000000000000000000000000000000006020830152604082019050919050565b6000612642602983612f09565b91507f455243313135353a2063616c6c6572206973206e6f74206f776e6572206e6f7260008301527f20617070726f76656400000000000000000000000000000000000000000000006020830152604082019050919050565b60006126a8602583612f09565b91507f455243313135353a207472616e7366657220746f20746865207a65726f20616460008301527f64726573730000000000000000000000000000000000000000000000000000006020830152604082019050919050565b600061270e603283612f09565b91507f455243313135353a207472616e736665722063616c6c6572206973206e6f742060008301527f6f776e6572206e6f7220617070726f76656400000000000000000000000000006020830152604082019050919050565b6000612774602a83612f09565b91507f455243313135353a20696e73756666696369656e742062616c616e636520666f60008301527f72207472616e73666572000000000000000000000000000000000000000000006020830152604082019050919050565b60006127da602083612f09565b91507f4f776e61626c653a2063616c6c6572206973206e6f7420746865206f776e65726000830152602082019050919050565b600061281a602983612f09565b91507f54686973206164647265737320616c726561647920686173206d696e7465642060008301527f74686520746f6b656e00000000000000000000000000000000000000000000006020830152604082019050919050565b6000612880602983612f09565b91507f455243313135353a2073657474696e6720617070726f76616c2073746174757360008301527f20666f722073656c6600000000000000000000000000000000000000000000006020830152604082019050919050565b60006128e6602983612f09565b91507f455243313135353a206163636f756e747320616e6420696473206c656e67746860008301527f206d69736d6174636800000000000000000000000000000000000000000000006020830152604082019050919050565b600061294c602883612f09565b91507f455243313135353a2069647320616e6420616d6f756e7473206c656e6774682060008301527f6d69736d617463680000000000000000000000000000000000000000000000006020830152604082019050919050565b60006129b2602183612f09565b91507f455243313135353a206d696e7420746f20746865207a65726f2061646472657360008301527f73000000000000000000000000000000000000000000000000000000000000006020830152604082019050919050565b612a148161301c565b82525050565b612a238161301c565b82525050565b6000602082019050612a3e600083018461236f565b92915050565b600060a082019050612a59600083018861236f565b612a66602083018761236f565b8181036040830152612a78818661237e565b90508181036060830152612a8c818561237e565b90508181036080830152612aa081846123eb565b90509695505050505050565b600060a082019050612ac1600083018861236f565b612ace602083018761236f565b612adb6040830186612a1a565b612ae86060830185612a1a565b8181036080830152612afa81846123eb565b90509695505050505050565b60006020820190508181036000830152612b20818461237e565b905092915050565b60006040820190508181036000830152612b42818561237e565b90508181036020830152612b56818461237e565b90509392505050565b6000602082019050612b7460008301846123dc565b92915050565b60006020820190508181036000830152612b948184612424565b905092915050565b60006020820190508181036000830152612bb58161245d565b9050919050565b60006020820190508181036000830152612bd5816124c3565b9050919050565b60006020820190508181036000830152612bf581612529565b9050919050565b60006020820190508181036000830152612c1581612569565b9050919050565b60006020820190508181036000830152612c35816125cf565b9050919050565b60006020820190508181036000830152612c5581612635565b9050919050565b60006020820190508181036000830152612c758161269b565b9050919050565b60006020820190508181036000830152612c9581612701565b9050919050565b60006020820190508181036000830152612cb581612767565b9050919050565b60006020820190508181036000830152612cd5816127cd565b9050919050565b60006020820190508181036000830152612cf58161280d565b9050919050565b60006020820190508181036000830152612d1581612873565b9050919050565b60006020820190508181036000830152612d35816128d9565b9050919050565b60006020820190508181036000830152612d558161293f565b9050919050565b60006020820190508181036000830152612d75816129a5565b9050919050565b6000602082019050612d916000830184612a1a565b92915050565b6000604082019050612dac6000830185612a1a565b612db96020830184612a1a565b9392505050565b6000604051905081810181811067ffffffffffffffff82111715612de757612de661316c565b5b8060405250919050565b600067ffffffffffffffff821115612e0c57612e0b61316c565b5b602082029050602081019050919050565b600067ffffffffffffffff821115612e3857612e3761316c565b5b602082029050602081019050919050565b600067ffffffffffffffff821115612e6457612e6361316c565b5b601f19601f8301169050602081019050919050565b600067ffffffffffffffff821115612e9457612e9361316c565b5b601f19601f8301169050602081019050919050565b6000819050602082019050919050565b600081519050919050565b600081519050919050565b600081519050919050565b6000602082019050919050565b600082825260208201905092915050565b600082825260208201905092915050565b600082825260208201905092915050565b6000612f258261301c565b9150612f308361301c565b9250827fffffffffffffffffffffffffffffffffffffffffffffffffffffffffffffffff03821115612f6557612f6461310e565b5b828201905092915050565b6000612f7b82612fee565b9150612f8683612fee565b925082821015612f9957612f9861310e565b5b828203905092915050565b6000612faf82612ffc565b9050919050565b60008115159050919050565b60007fffffffff0000000000000000000000000000000000000000000000000000000082169050919050565b600061ffff82169050919050565b600073ffffffffffffffffffffffffffffffffffffffff82169050919050565b6000819050919050565b82818337600083830152505050565b60005b83811015613053578082015181840152602081019050613038565b83811115613062576000848401525b50505050565b6000600282049050600182168061308057607f821691505b602082108114156130945761309361313d565b5b50919050565b60006130a582612fee565b915061ffff8214156130ba576130b961310e565b5b600182019050919050565b60006130d08261301c565b91507fffffffffffffffffffffffffffffffffffffffffffffffffffffffffffffffff8214156131035761310261310e565b5b600182019050919050565b7f4e487b7100000000000000000000000000000000000000000000000000000000600052601160045260246000fd5b7f4e487b7100000000000000000000000000000000000000000000000000000000600052602260045260246000fd5b7f4e487b7100000000000000000000000000000000000000000000000000000000600052604160045260246000fd5b6000601f19601f8301169050919050565b60008160e01c9050919050565b600060443d10156131c95761326c565b60046000803e6131da6000516131ac565b6308c379a081146131eb575061326c565b60405160043d036004823e80513d602482011167ffffffffffffffff821117156132175750505061326c565b808201805167ffffffffffffffff81111561323657505050505061326c565b8060208301013d85018111156132515750505050505061326c565b61325a8261319b565b60208401016040528296505050505050505b90565b61327881612fa4565b811461328357600080fd5b50565b61328f81612fb6565b811461329a57600080fd5b50565b6132a681612fc2565b81146132b157600080fd5b50565b6132bd8161301c565b81146132c857600080fd5b5056fe697066733a2f2f516d595937464d764c63674b676e7a4a623631713167764c717078536f52324e34673267706b6f47664b737a5132a2646970667358221220c3ab157acb9455a40ee9a75778e0d9e6ccc662533b0aebe48bd8f00484c489ff64736f6c63430008000033697066733a2f2f516d6638637144374d32426b376a75524c473376537271346d70747933327775474270657168786b5750434a5056",
  "linkReferences": {},
  "deployedLinkReferences": {}
}