{
  "_format": "hh-sol-artifact-1",
  "contractName": "WeRaceDAONFT",
  "sourceName": "contracts/WeRaceDAONFT.sol",
  "abi": [
    {
      "inputs": [],
      "stateMutability": "nonpayable",
      "type": "constructor"
    },
    {
      "anonymous": false,
      "inputs": [
        {
          "indexed": true,
          "internalType": "address",
          "name": "account",
          "type": "address"
        },
        {
          "indexed": true,
          "internalType": "address",
          "name": "operator",
          "type": "address"
        },
        {
          "indexed": false,
          "internalType": "bool",
          "name": "approved",
          "type": "bool"
        }
      ],
      "name": "ApprovalForAll",
      "type": "event"
    },
    {
      "anonymous": false,
      "inputs": [
        {
          "indexed": true,
          "internalType": "address",
          "name": "previousOwner",
          "type": "address"
        },
        {
          "indexed": true,
          "internalType": "address",
          "name": "newOwner",
          "type": "address"
        }
      ],
      "name": "OwnershipTransferred",
      "type": "event"
    },
    {
      "anonymous": false,
      "inputs": [
        {
          "indexed": true,
          "internalType": "address",
          "name": "operator",
          "type": "address"
        },
        {
          "indexed": true,
          "internalType": "address",
          "name": "from",
          "type": "address"
        },
        {
          "indexed": true,
          "internalType": "address",
          "name": "to",
          "type": "address"
        },
        {
          "indexed": false,
          "internalType": "uint256[]",
          "name": "ids",
          "type": "uint256[]"
        },
        {
          "indexed": false,
          "internalType": "uint256[]",
          "name": "values",
          "type": "uint256[]"
        }
      ],
      "name": "TransferBatch",
      "type": "event"
    },
    {
      "anonymous": false,
      "inputs": [
        {
          "indexed": true,
          "internalType": "address",
          "name": "operator",
          "type": "address"
        },
        {
          "indexed": true,
          "internalType": "address",
          "name": "from",
          "type": "address"
        },
        {
          "indexed": true,
          "internalType": "address",
          "name": "to",
          "type": "address"
        },
        {
          "indexed": false,
          "internalType": "uint256",
          "name": "id",
          "type": "uint256"
        },
        {
          "indexed": false,
          "internalType": "uint256",
          "name": "value",
          "type": "uint256"
        }
      ],
      "name": "TransferSingle",
      "type": "event"
    },
    {
      "anonymous": false,
      "inputs": [
        {
          "indexed": false,
          "internalType": "string",
          "name": "value",
          "type": "string"
        },
        {
          "indexed": true,
          "internalType": "uint256",
          "name": "id",
          "type": "uint256"
        }
      ],
      "name": "URI",
      "type": "event"
    },
    {
      "inputs": [
        {
          "internalType": "address",
          "name": "account",
          "type": "address"
        },
        {
          "internalType": "uint256",
          "name": "id",
          "type": "uint256"
        }
      ],
      "name": "balanceOf",
      "outputs": [
        {
          "internalType": "uint256",
          "name": "",
          "type": "uint256"
        }
      ],
      "stateMutability": "view",
      "type": "function"
    },
    {
      "inputs": [
        {
          "internalType": "address[]",
          "name": "accounts",
          "type": "address[]"
        },
        {
          "internalType": "uint256[]",
          "name": "ids",
          "type": "uint256[]"
        }
      ],
      "name": "balanceOfBatch",
      "outputs": [
        {
          "internalType": "uint256[]",
          "name": "",
          "type": "uint256[]"
        }
      ],
      "stateMutability": "view",
      "type": "function"
    },
    {
      "inputs": [
        {
          "internalType": "address",
          "name": "checkAddress",
          "type": "address"
        }
      ],
      "name": "checkMintBalance",
      "outputs": [],
      "stateMutability": "view",
      "type": "function"
    },
    {
      "inputs": [],
      "name": "contractURI",
      "outputs": [
        {
          "internalType": "string",
          "name": "",
          "type": "string"
        }
      ],
      "stateMutability": "view",
      "type": "function"
    },
    {
      "inputs": [],
      "name": "getRemaining",
      "outputs": [
        {
          "internalType": "uint256",
          "name": "",
          "type": "uint256"
        }
      ],
      "stateMutability": "view",
      "type": "function"
    },
    {
      "inputs": [
        {
          "internalType": "address",
          "name": "account",
          "type": "address"
        },
        {
          "internalType": "address",
          "name": "operator",
          "type": "address"
        }
      ],
      "name": "isApprovedForAll",
      "outputs": [
        {
          "internalType": "bool",
          "name": "",
          "type": "bool"
        }
      ],
      "stateMutability": "view",
      "type": "function"
    },
    {
      "inputs": [],
      "name": "mint",
      "outputs": [],
      "stateMutability": "nonpayable",
      "type": "function"
    },
    {
      "inputs": [],
      "name": "name",
      "outputs": [
        {
          "internalType": "string",
          "name": "",
          "type": "string"
        }
      ],
      "stateMutability": "view",
      "type": "function"
    },
    {
      "inputs": [],
      "name": "owner",
      "outputs": [
        {
          "internalType": "address",
          "name": "",
          "type": "address"
        }
      ],
      "stateMutability": "view",
      "type": "function"
    },
    {
      "inputs": [],
      "name": "renounceOwnership",
      "outputs": [],
      "stateMutability": "nonpayable",
      "type": "function"
    },
    {
      "inputs": [
        {
          "internalType": "address",
          "name": "from",
          "type": "address"
        },
        {
          "internalType": "address",
          "name": "to",
          "type": "address"
        },
        {
          "internalType": "uint256[]",
          "name": "ids",
          "type": "uint256[]"
        },
        {
          "internalType": "uint256[]",
          "name": "amounts",
          "type": "uint256[]"
        },
        {
          "internalType": "bytes",
          "name": "data",
          "type": "bytes"
        }
      ],
      "name": "safeBatchTransferFrom",
      "outputs": [],
      "stateMutability": "nonpayable",
      "type": "function"
    },
    {
      "inputs": [
        {
          "internalType": "address",
          "name": "from",
          "type": "address"
        },
        {
          "internalType": "address",
          "name": "to",
          "type": "address"
        },
        {
          "internalType": "uint256",
          "name": "id",
          "type": "uint256"
        },
        {
          "internalType": "uint256",
          "name": "amount",
          "type": "uint256"
        },
        {
          "internalType": "bytes",
          "name": "data",
          "type": "bytes"
        }
      ],
      "name": "safeTransferFrom",
      "outputs": [],
      "stateMutability": "nonpayable",
      "type": "function"
    },
    {
      "inputs": [
        {
          "internalType": "address",
          "name": "operator",
          "type": "address"
        },
        {
          "internalType": "bool",
          "name": "approved",
          "type": "bool"
        }
      ],
      "name": "setApprovalForAll",
      "outputs": [],
      "stateMutability": "nonpayable",
      "type": "function"
    },
    {
      "inputs": [
        {
          "internalType": "string",
          "name": "_name",
          "type": "string"
        }
      ],
      "name": "setName",
      "outputs": [],
      "stateMutability": "nonpayable",
      "type": "function"
    },
    {
      "inputs": [
        {
          "internalType": "string",
          "name": "_newuri",
          "type": "string"
        }
      ],
      "name": "setURI",
      "outputs": [],
      "stateMutability": "nonpayable",
      "type": "function"
    },
    {
      "inputs": [
        {
          "internalType": "bytes4",
          "name": "interfaceId",
          "type": "bytes4"
        }
      ],
      "name": "supportsInterface",
      "outputs": [
        {
          "internalType": "bool",
          "name": "",
          "type": "bool"
        }
      ],
      "stateMutability": "view",
      "type": "function"
    },
    {
      "inputs": [
        {
          "internalType": "address",
          "name": "newOwner",
          "type": "address"
        }
      ],
      "name": "transferOwnership",
      "outputs": [],
      "stateMutability": "nonpayable",
      "type": "function"
    },
    {
      "inputs": [
        {
          "internalType": "uint256",
          "name": "",
          "type": "uint256"
        }
      ],
      "name": "uri",
      "outputs": [
        {
          "internalType": "string",
          "name": "",
          "type": "string"
        }
      ],
      "stateMutability": "view",
      "type": "function"
    }
  ],
  "bytecode": "0x60806040526003805461ffff60a01b1916606960a21b1761ffff60b01b191690553480156200002d57600080fd5b5060405180606001604052806035815260200162002544603591396200005381620000d1565b506200006862000062620000ea565b620000ef565b6200008c33600180604051806020016040528060008152506200014160201b60201c565b60408051808201909152601481527f576552616365204e46542044414f20546f6b656e0000000000000000000000006020820152620000cb9062000251565b6200081c565b8051620000e69060029060208401906200045a565b5050565b335b90565b600380546001600160a01b038381166001600160a01b0319831681179093556040519116919082907f8be0079c531659141344cd1fd0a4f28419497f9722a3daafe3b4186f6b6457e090600090a35050565b6001600160a01b038416620001735760405162461bcd60e51b81526004016200016a90620006b5565b60405180910390fd5b60006200017f620000ea565b9050620001a6816000876200019488620002ac565b6200019f88620002ac565b8762000306565b6000848152602081815260408083206001600160a01b038916845290915281208054859290620001d890849062000704565b92505081905550846001600160a01b031660006001600160a01b0316826001600160a01b03167fc3d58168c5ae7397731d063d5bbf3d657854427343f4c083240f7aacaa2d0f62878760405162000231929190620006f6565b60405180910390a46200024a816000878787876200030e565b5050505050565b6200025b620000ea565b6001600160a01b03166200026e62000445565b6001600160a01b031614620002975760405162461bcd60e51b81526004016200016a9062000680565b8051620000e69060059060208401906200045a565b60408051600180825281830190925260609160009190602080830190803683370190505090508281600081518110620002f557634e487b7160e01b600052603260045260246000fd5b602090810291909101015292915050565b505050505050565b6200032d846001600160a01b03166200045460201b620008e11760201c565b15620003065760405163f23a6e6160e01b81526001600160a01b0385169063f23a6e61906200036990899089908890889088906004016200057f565b602060405180830381600087803b1580156200038457600080fd5b505af1925050508015620003b7575060408051601f3d908101601f19168201909252620003b49181019062000500565b60015b6200040957620003c66200076c565b80620003d35750620003ef565b8060405162461bcd60e51b81526004016200016a9190620005c6565b60405162461bcd60e51b81526004016200016a90620005db565b6001600160e01b0319811663f23a6e6160e01b146200043c5760405162461bcd60e51b81526004016200016a9062000638565b50505050505050565b6003546001600160a01b031690565b3b151590565b828054620004689062000729565b90600052602060002090601f0160209004810192826200048c5760008555620004d7565b82601f10620004a757805160ff1916838001178555620004d7565b82800160010185558215620004d7579182015b82811115620004d7578251825591602001919060010190620004ba565b50620004e5929150620004e9565b5090565b5b80821115620004e55760008155600101620004ea565b60006020828403121562000512578081fd5b81516001600160e01b0319811681146200052a578182fd5b9392505050565b60008151808452815b8181101562000558576020818501810151868301820152016200053a565b818111156200056a5782602083870101525b50601f01601f19169290920160200192915050565b6001600160a01b03868116825285166020820152604081018490526060810183905260a060808201819052600090620005bb9083018462000531565b979650505050505050565b6000602082526200052a602083018462000531565b60208082526034908201527f455243313135353a207472616e7366657220746f206e6f6e204552433131353560408201527f526563656976657220696d706c656d656e746572000000000000000000000000606082015260800190565b60208082526028908201527f455243313135353a204552433131353552656365697665722072656a656374656040820152676420746f6b656e7360c01b606082015260800190565b6020808252818101527f4f776e61626c653a2063616c6c6572206973206e6f7420746865206f776e6572604082015260600190565b60208082526021908201527f455243313135353a206d696e7420746f20746865207a65726f206164647265736040820152607360f81b606082015260800190565b918252602082015260400190565b600082198211156200072457634e487b7160e01b81526011600452602481fd5b500190565b6002810460018216806200073e57607f821691505b602082108114156200076057634e487b7160e01b600052602260045260246000fd5b50919050565b60e01c90565b600060443d10156200077e57620000ec565b600481823e6308c379a062000794825162000766565b14620007a057620000ec565b6040513d600319016004823e80513d6001600160401b038083116024840183101715620007d15750505050620000ec565b82840192508251915080821115620007ed5750505050620000ec565b503d830160208284010111156200080757505050620000ec565b601f01601f1916810160200160405291505090565b611d18806200082c6000396000f3fe608060405234801561001057600080fd5b50600436106101155760003560e01c8063715018a6116100a2578063d6a022b811610071578063d6a022b814610231578063e8a3d48514610239578063e985e9c514610241578063f242432a14610254578063f2fde38b1461026757610115565b8063715018a6146101ee5780638da5cb5b146101f6578063a22cb4651461020b578063c47f00271461021e57610115565b80630e89341c116100e95780630e89341c1461018d5780631249c58b146101a05780632eb2c2d6146101a85780634e1273f4146101bb578063706302a4146101db57610115565b8062fdd58e1461011a57806301ffc9a71461014357806302fe53051461016357806306fdde0314610178575b600080fd5b61012d610128366004611361565b61027a565b60405161013a9190611aa8565b60405180910390f35b610156610151366004611448565b6102d1565b60405161013a9190611663565b610176610171366004611480565b610319565b005b610180610364565b60405161013a919061166e565b61018061019b3660046114ce565b6103f2565b610176610486565b6101766101b636600461121e565b610538565b6101ce6101c936600461138a565b610596565b60405161013a9190611622565b6101766101e93660046111d2565b6106b6565b6101766106de565b6101fe610729565b60405161013a919061156b565b610176610219366004611327565b610739565b61017661022c366004611480565b61074f565b61012d6107a1565b6101806107ce565b61015661024f3660046111ec565b6107ee565b6101766102623660046112c4565b61081c565b6101766102753660046111d2565b610873565b60006001600160a01b0383166102ab5760405162461bcd60e51b81526004016102a290611754565b60405180910390fd5b506000908152602081815260408083206001600160a01b03949094168352929052205490565b60006001600160e01b03198216636cdb3d1360e11b148061030257506001600160e01b031982166303a24d0760e21b145b806103115750610311826108e7565b90505b919050565b610321610900565b6001600160a01b0316610332610729565b6001600160a01b0316146103585760405162461bcd60e51b81526004016102a29061190f565b61036181610904565b50565b6005805461037190611b48565b80601f016020809104026020016040519081016040528092919081815260200182805461039d90611b48565b80156103ea5780601f106103bf576101008083540402835291602001916103ea565b820191906000526020600020905b8154815290600101906020018083116103cd57829003601f168201915b505050505081565b60606002805461040190611b48565b80601f016020809104026020016040519081016040528092919081815260200182805461042d90611b48565b801561047a5780601f1061044f5761010080835404028352916020019161047a565b820191906000526020600020905b81548152906001019060200180831161045d57829003601f168201915b50505050509050919050565b61049133600161027a565b156104ae5760405162461bcd60e51b81526004016102a290611944565b60035461ffff600160a01b82048116600160b01b9092041611156104e45760405162461bcd60e51b81526004016102a29061171d565b6105003360018060405180602001604052806000815250610917565b60038054600160b01b900461ffff1690601661051b83611b83565b91906101000a81548161ffff021916908361ffff16021790555050565b610540610900565b6001600160a01b0316856001600160a01b0316148061056657506105668561024f610900565b6105825760405162461bcd60e51b81526004016102a290611873565b61058f8585858585610a06565b5050505050565b606081518351146105b95760405162461bcd60e51b81526004016102a2906119d6565b6000835167ffffffffffffffff8111156105e357634e487b7160e01b600052604160045260246000fd5b60405190808252806020026020018201604052801561060c578160200160208202803683370190505b50905060005b84518110156106ae5761067385828151811061063e57634e487b7160e01b600052603260045260246000fd5b602002602001015185838151811061066657634e487b7160e01b600052603260045260246000fd5b602002602001015161027a565b82828151811061069357634e487b7160e01b600052603260045260246000fd5b60209081029190910101526106a781611ba5565b9050610612565b509392505050565b6106c181600161027a565b156103615760405162461bcd60e51b81526004016102a290611944565b6106e6610900565b6001600160a01b03166106f7610729565b6001600160a01b03161461071d5760405162461bcd60e51b81526004016102a29061190f565b6107276000610bd7565b565b6003546001600160a01b03165b90565b61074b610744610900565b8383610c29565b5050565b610757610900565b6001600160a01b0316610768610729565b6001600160a01b03161461078e5760405162461bcd60e51b81526004016102a29061190f565b805161074b906005906020840190611038565b6003546000906107c59061ffff600160b01b8204811691600160a01b900416611b25565b61ffff16905090565b6060604051806060016040528060358152602001611cae60359139905090565b6001600160a01b03918216600090815260016020908152604080832093909416825291909152205460ff1690565b610824610900565b6001600160a01b0316856001600160a01b0316148061084a575061084a8561024f610900565b6108665760405162461bcd60e51b81526004016102a2906117e5565b61058f8585858585610ccc565b61087b610900565b6001600160a01b031661088c610729565b6001600160a01b0316146108b25760405162461bcd60e51b81526004016102a29061190f565b6001600160a01b0381166108d85760405162461bcd60e51b81526004016102a29061179f565b61036181610bd7565b3b151590565b6001600160e01b031981166301ffc9a760e01b14919050565b3390565b805161074b906002906020840190611038565b6001600160a01b03841661093d5760405162461bcd60e51b81526004016102a290611a67565b6000610947610900565b90506109688160008761095988610e00565b61096288610e00565b87610bcf565b6000848152602081815260408083206001600160a01b038916845290915281208054859290610998908490611b0d565b92505081905550846001600160a01b031660006001600160a01b0316826001600160a01b03167fc3d58168c5ae7397731d063d5bbf3d657854427343f4c083240f7aacaa2d0f6287876040516109ef929190611ab1565b60405180910390a461058f81600087878787610e59565b8151835114610a275760405162461bcd60e51b81526004016102a290611a1f565b6001600160a01b038416610a4d5760405162461bcd60e51b81526004016102a29061182e565b6000610a57610900565b9050610a67818787878787610bcf565b60005b8451811015610b69576000858281518110610a9557634e487b7160e01b600052603260045260246000fd5b602002602001015190506000858381518110610ac157634e487b7160e01b600052603260045260246000fd5b602090810291909101810151600084815280835260408082206001600160a01b038e168352909352919091205490915081811015610b115760405162461bcd60e51b81526004016102a2906118c5565b6000838152602081815260408083206001600160a01b038e8116855292528083208585039055908b16825281208054849290610b4e908490611b0d565b9250508190555050505080610b6290611ba5565b9050610a6a565b50846001600160a01b0316866001600160a01b0316826001600160a01b03167f4a39dc06d4c0dbc64b70af90fd698a233a518aa5d07e595d983b8c0526c8f7fb8787604051610bb9929190611635565b60405180910390a4610bcf818787878787610f67565b505050505050565b600380546001600160a01b038381166001600160a01b0319831681179093556040519116919082907f8be0079c531659141344cd1fd0a4f28419497f9722a3daafe3b4186f6b6457e090600090a35050565b816001600160a01b0316836001600160a01b03161415610c5b5760405162461bcd60e51b81526004016102a29061198d565b6001600160a01b0383811660008181526001602090815260408083209487168084529490915290819020805460ff1916851515179055517f17307eab39ab6107e8899845ad3d59bd9653f200f220920489ca2b5937696c3190610cbf908590611663565b60405180910390a3505050565b6001600160a01b038416610cf25760405162461bcd60e51b81526004016102a29061182e565b6000610cfc610900565b9050610d0d81878761095988610e00565b6000848152602081815260408083206001600160a01b038a16845290915290205483811015610d4e5760405162461bcd60e51b81526004016102a2906118c5565b6000858152602081815260408083206001600160a01b038b8116855292528083208785039055908816825281208054869290610d8b908490611b0d565b92505081905550856001600160a01b0316876001600160a01b0316836001600160a01b03167fc3d58168c5ae7397731d063d5bbf3d657854427343f4c083240f7aacaa2d0f628888604051610de1929190611ab1565b60405180910390a4610df7828888888888610e59565b50505050505050565b60408051600180825281830190925260609160009190602080830190803683370190505090508281600081518110610e4857634e487b7160e01b600052603260045260246000fd5b602090810291909101015292915050565b610e6b846001600160a01b03166108e1565b15610bcf5760405163f23a6e6160e01b81526001600160a01b0385169063f23a6e6190610ea490899089908890889088906004016115dd565b602060405180830381600087803b158015610ebe57600080fd5b505af1925050508015610eee575060408051601f3d908101601f19168201909252610eeb91810190611464565b60015b610f3757610efa611bf2565b80610f055750610f1f565b8060405162461bcd60e51b81526004016102a2919061166e565b60405162461bcd60e51b81526004016102a290611681565b6001600160e01b0319811663f23a6e6160e01b14610df75760405162461bcd60e51b81526004016102a2906116d5565b610f79846001600160a01b03166108e1565b15610bcf5760405163bc197c8160e01b81526001600160a01b0385169063bc197c8190610fb2908990899088908890889060040161157f565b602060405180830381600087803b158015610fcc57600080fd5b505af1925050508015610ffc575060408051601f3d908101601f19168201909252610ff991810190611464565b60015b61100857610efa611bf2565b6001600160e01b0319811663bc197c8160e01b14610df75760405162461bcd60e51b81526004016102a2906116d5565b82805461104490611b48565b90600052602060002090601f01602090048101928261106657600085556110ac565b82601f1061107f57805160ff19168380011785556110ac565b828001600101855582156110ac579182015b828111156110ac578251825591602001919060010190611091565b506110b89291506110bc565b5090565b5b808211156110b857600081556001016110bd565b600067ffffffffffffffff8311156110eb576110eb611bd6565b6110fe601f8401601f1916602001611abf565b905082815283838301111561111257600080fd5b828260208301376000602084830101529392505050565b80356001600160a01b038116811461031457600080fd5b600082601f830112611150578081fd5b8135602061116561116083611ae9565b611abf565b8281528181019085830183850287018401881015611181578586fd5b855b8581101561119f57813584529284019290840190600101611183565b5090979650505050505050565b600082601f8301126111bc578081fd5b6111cb838335602085016110d1565b9392505050565b6000602082840312156111e3578081fd5b6111cb82611129565b600080604083850312156111fe578081fd5b61120783611129565b915061121560208401611129565b90509250929050565b600080600080600060a08688031215611235578081fd5b61123e86611129565b945061124c60208701611129565b9350604086013567ffffffffffffffff80821115611268578283fd5b61127489838a01611140565b94506060880135915080821115611289578283fd5b61129589838a01611140565b935060808801359150808211156112aa578283fd5b506112b7888289016111ac565b9150509295509295909350565b600080600080600060a086880312156112db578081fd5b6112e486611129565b94506112f260208701611129565b93506040860135925060608601359150608086013567ffffffffffffffff81111561131b578182fd5b6112b7888289016111ac565b60008060408385031215611339578182fd5b61134283611129565b915060208301358015158114611356578182fd5b809150509250929050565b60008060408385031215611373578182fd5b61137c83611129565b946020939093013593505050565b6000806040838503121561139c578182fd5b823567ffffffffffffffff808211156113b3578384fd5b818501915085601f8301126113c6578384fd5b813560206113d661116083611ae9565b82815281810190858301838502870184018b10156113f2578889fd5b8896505b8487101561141b5761140781611129565b8352600196909601959183019183016113f6565b5096505086013592505080821115611431578283fd5b5061143e85828601611140565b9150509250929050565b600060208284031215611459578081fd5b81356111cb81611c97565b600060208284031215611475578081fd5b81516111cb81611c97565b600060208284031215611491578081fd5b813567ffffffffffffffff8111156114a7578182fd5b8201601f810184136114b7578182fd5b6114c6848235602084016110d1565b949350505050565b6000602082840312156114df578081fd5b5035919050565b6000815180845260208085019450808401835b83811015611515578151875295820195908201906001016114f9565b509495945050505050565b60008151808452815b8181101561154557602081850181015186830182015201611529565b818111156115565782602083870101525b50601f01601f19169290920160200192915050565b6001600160a01b0391909116815260200190565b6001600160a01b0386811682528516602082015260a0604082018190526000906115ab908301866114e6565b82810360608401526115bd81866114e6565b905082810360808401526115d18185611520565b98975050505050505050565b6001600160a01b03868116825285166020820152604081018490526060810183905260a06080820181905260009061161790830184611520565b979650505050505050565b6000602082526111cb60208301846114e6565b60006040825261164860408301856114e6565b828103602084015261165a81856114e6565b95945050505050565b901515815260200190565b6000602082526111cb6020830184611520565b60208082526034908201527f455243313135353a207472616e7366657220746f206e6f6e20455243313135356040820152732932b1b2b4bb32b91034b6b83632b6b2b73a32b960611b606082015260800190565b60208082526028908201527f455243313135353a204552433131353552656365697665722072656a656374656040820152676420746f6b656e7360c01b606082015260800190565b60208082526017908201527f4e4654732061726520616c7265616479206d696e746564000000000000000000604082015260600190565b6020808252602b908201527f455243313135353a2062616c616e636520717565727920666f7220746865207a60408201526a65726f206164647265737360a81b606082015260800190565b60208082526026908201527f4f776e61626c653a206e6577206f776e657220697320746865207a65726f206160408201526564647265737360d01b606082015260800190565b60208082526029908201527f455243313135353a2063616c6c6572206973206e6f74206f776e6572206e6f7260408201526808185c1c1c9bdd995960ba1b606082015260800190565b60208082526025908201527f455243313135353a207472616e7366657220746f20746865207a65726f206164604082015264647265737360d81b606082015260800190565b60208082526032908201527f455243313135353a207472616e736665722063616c6c6572206973206e6f74206040820152711bdddb995c881b9bdc88185c1c1c9bdd995960721b606082015260800190565b6020808252602a908201527f455243313135353a20696e73756666696369656e742062616c616e636520666f60408201526939103a3930b739b332b960b11b606082015260800190565b6020808252818101527f4f776e61626c653a2063616c6c6572206973206e6f7420746865206f776e6572604082015260600190565b60208082526029908201527f54686973206164647265737320616c726561647920686173206d696e746564206040820152683a3432903a37b5b2b760b91b606082015260800190565b60208082526029908201527f455243313135353a2073657474696e6720617070726f76616c20737461747573604082015268103337b91039b2b63360b91b606082015260800190565b60208082526029908201527f455243313135353a206163636f756e747320616e6420696473206c656e677468604082015268040dad2e6dac2e8c6d60bb1b606082015260800190565b60208082526028908201527f455243313135353a2069647320616e6420616d6f756e7473206c656e677468206040820152670dad2e6dac2e8c6d60c31b606082015260800190565b60208082526021908201527f455243313135353a206d696e7420746f20746865207a65726f206164647265736040820152607360f81b606082015260800190565b90815260200190565b918252602082015260400190565b60405181810167ffffffffffffffff81118282101715611ae157611ae1611bd6565b604052919050565b600067ffffffffffffffff821115611b0357611b03611bd6565b5060209081020190565b60008219821115611b2057611b20611bc0565b500190565b600061ffff83811690831681811015611b4057611b40611bc0565b039392505050565b600281046001821680611b5c57607f821691505b60208210811415611b7d57634e487b7160e01b600052602260045260246000fd5b50919050565b600061ffff80831681811415611b9b57611b9b611bc0565b6001019392505050565b6000600019821415611bb957611bb9611bc0565b5060010190565b634e487b7160e01b600052601160045260246000fd5b634e487b7160e01b600052604160045260246000fd5b60e01c90565b600060443d1015611c0257610736565b600481823e6308c379a0611c168251611bec565b14611c2057610736565b6040513d600319016004823e80513d67ffffffffffffffff8160248401118184111715611c505750505050610736565b82840192508251915080821115611c6a5750505050610736565b503d83016020828401011115611c8257505050610736565b601f01601f1916810160200160405291505090565b6001600160e01b03198116811461036157600080fdfe697066733a2f2f516d536b4e364667643732354d39764b6842465436626239365134374b4a38644552677574546369746547616631a2646970667358221220afeb8c181d6fd1633702f550ac1775b9faa04a8d34ddb334b2bbf6dc4dce1dae64736f6c63430008000033697066733a2f2f516d6638637144374d32426b376a75524c473376537271346d70747933327775474270657168786b5750434a5056",
  "linkReferences": {},
  "deployedLinkReferences": {}
}